:100000000C9462000C948A000C948A000C948A0070
:100010000C948A000C948A000C948A000C94460775
:100020000C948A000C948A000C948A000C948A0028
:100030000C948A000C948A000C948A000C948A0018
:100040000C9476060C948A000C948A000C948A0016
:100050000C948A000C948A000C948A000C948A00F8
:100060000C948A000C948A000000000023002600F3
:10007000290000000000240027002A0000000000E2
:10008000250028002B0004040404040404040202D4
:100090000202020203030303030301020408102007
:1000A0004080010204081020010204081020000012
:1000B0000008000201000003040700000000000027
:1000C0000000410C11241FBECFEFD8E0DEBFCDBF32
:1000D00011E0A0E0B1E0E0E7FEE102C005900D9282
:1000E000A233B107D9F722E0A2E3B1E001C01D922B
:1000F000AD33B207E1F710E0C2E6D0E004C02197CB
:10010000FE010E942B0FC136D107C9F70E94A90A30
:100110000C94360F0C9400002F923F924F925F92F6
:100120006F927F928F929F92AF92BF92CF92DF9207
:10013000EF92FF920F931F93CF93DF9300D000D0E5
:1001400000D0CDB7DEB787E391E090932102809392
:1001500020028091FF0190E090932302809322027D
:1001600080913301853009F05AC480913901909112
:100170003A01885891098D35910588F48091FF01E5
:10018000843041F480913B0190913C0180974797E6
:1001900008F47FC08091FF01843408F061C0809131
:1001A000FF018A3108F4C8C080913701909138016D
:1001B000843F914080F410921F0210921E028FEF34
:1001C0009FEFDC0180931A0290931B02A0931C0204
:1001D000B0931D0242C08091390190913A018597F8
:1001E0004B9708F0A9C0EDE3F1E082E090E040E039
:1001F00050E0BA012091FF0130E0DC011196A21716
:10020000B30754F4DF0112972D913C912750310927
:100210002730310508F475C001979595879590931F
:100220001F0280931E020C972CF410921F02109252
:100230001E0282C040931A0250931B0260931C025C
:1002400070931D0282E090E0F7C340931A0250932E
:100250001B0260931C0270931D0289E090E0ECC3C6
:1002600080913B0190913C01825491098E9708F056
:1002700096CF20E030E080E090E0DC01F901E35C23
:10028000FE4F40815181495051094930510588F054
:1002900086CF80913D0190913E010997099708F022
:1002A00079CF10921F0210921E028FEF9FEFDC0198
:1002B000B9C3F901E15CFE4F4081518146515109BA
:1002C0004131510588F4880F991FAA1FBB1F816017
:1002D0002C5F3F4F2038310589F620E230E0309323
:1002E0001F0220931E029EC3408151814650510936
:1002F0004730510508F053CF880F991FAA1FBB1F25
:10030000E7CF20813181235131092F30310540F46D
:10031000440F551F661F771F4160029634966ACFBF
:10032000208131812A5031092930310528F4440FC8
:10033000551F661F771FF1CF8091FF018A3108F4A6
:100340005AC080913701909138018032934008F46F
:1003500032CF8091390190913A01C697869708F083
:100360004AC080913B0190913C01C697869708F066
:1003700042C0EFE3F1E083E090E040E050E0BA01FA
:100380002091FF0130E0DC011196A217B3074CF475
:10039000DF0112972D913C912C5031092B30310502
:1003A00078F001979595879590931F0280931E0290
:1003B0000C970CF04ACF10921F0210921E021BC025
:1003C00020813181255231092B31310570F0208196
:1003D00031812C5031092A30310568F4440F551F02
:1003E000661F771F02963496CBCF440F551F661FAA
:1003F000771F4160F7CF8091FF01823208F457C028
:100400008091390190913A010697079708F04FC003
:10041000EDE3F1E082E090E040E050E0BA018C01D1
:100420000F5F1F4F2091FF0130E002171307C4F444
:10043000DF0112972D913C9111972E5131092731EF
:10044000310538F5440F551F661F771F4160208125
:1004500031813496235031092530310530F1C801FE
:1004600001979595879590931F0280931E02409760
:100470002CF410921F0210921E0219C040931A020F
:1004800050931B0260931C0270931D028AE090E05F
:10049000D3C22D913C912C5031092B30310538F4C9
:1004A000440F551F661F771FD2CF0296B8CF809199
:1004B000FF018D3048F4809122029091230218169A
:1004C00019060CF483C08FC081E090E09C838B837D
:1004D0001A82198249E753E0BE016F5F7F4FCE0158
:1004E00003960E94310A892B21F080E090E0DC0124
:1004F00067C049E753E0BE016F5F7F4FCE010396AF
:100500000E94310A019789F749E753E0BE016F5F06
:100510007F4FCE0103960E94310A892B31F700E00C
:1005200010E0C12CD12C76018091FF0190E02B814D
:100530003C812817390774F549E753E0BE016F5F26
:100540007F4FCE0103960E94310A5C0149E753E0D8
:10055000BE016F5F7F4FCE0103960E94310AB1E06A
:10056000AB16B10451F4892B09F0BFCFCC0CDD1CC4
:10057000EE1CFF1C6894C0F80AC0AB2809F0B5CF88
:10058000019709F0B2CFCC0CDD1CEE1CFF1C0F5FF5
:100590001F4FCACF10931F0200931E02C0921A026F
:1005A000D0921B02E0921C02F0921D0283E090E0C8
:1005B000909317028093160281E090E0A0E0B0E0F3
:1005C000892B8A2B8B2B09F05DC175CF81E090E0E0
:1005D0009C838B83E0912002F091210282819381A0
:1005E00089974E9720F080E090E0DC014AC082E0DD
:1005F00090E09C838B83848195810B970A9798F771
:1006000083E090E09C838B831A8219824CEB51E04B
:10061000BE016F5F7F4FCE0103960E94310A892B86
:1006200011F74CEB51E0BE016F5F7F4FCE01039697
:100630000E94310A0197B9F600E010E0C12CD12CDC
:10064000760120912202309123028B819C818217B6
:1006500093070CF41AC110931F0200931E02C0925C
:100660001A02D0921B02E0921C02F0921D0284E05A
:1006700090E0909317028093160281E090E0A0E052
:10068000B0E0892B8A2B8B2B09F0FCC0E091200273
:10069000F091210282819381C6978697E0F484814C
:1006A00095814B974597B8F4DF0116967F0126ECAC
:1006B000E20EF11C20E030E040E050E060E070E04D
:1006C00080E090E00D911C911197095011090830BC
:1006D000110508F4A9C08091FF01823231F48281B2
:1006E00093810A97099708F42FC1828193818957D2
:1006F000910983359105D0F48091FF018132B0F0EA
:1007000084819581CA97899788F49F012A5F3F4F1A
:10071000C12CD12C760143E050E0D9016D917C9140
:100720006A5071096930710508F42DC18091220267
:10073000909123029E838D8306970CF46BC18F01E9
:100740000E5F1F4F73E0272E312CE5ECCE2EEDE926
:10075000DE2EECE1EE2EE1E8FE2ED80114966D912E
:100760007C911597AD90BC9080E090E00E94BB0D0D
:100770002B013C01B50180E090E00E94BB0D4B01D4
:100780005C012DEC3CEC4CE45FE30E94720E9B019B
:10079000AC01C301B2010E940E0D87FD17C02DEC04
:1007A0003CEC4CE45FE3C301B2010E94720E9B017A
:1007B000AC01C501B4010E940E0DE82F880FFF0B9C
:1007C000EE27FF0FEE1FFF27319602C0E0E0F0E0BA
:1007D000A701960163E971E080E091E00E94E40ED8
:1007E0006F01FF0FEE08FF08C626D726E826F92678
:1007F000BFEF2B1A3B0A0E5F1F4FED81FE81E21502
:10080000F30509F0AACFC0921A02D0921B02E0921F
:100810001C02F0921D0280E290E090931F028093F0
:100820001E028FEF9FEF08C112960D911C91139736
:10083000015111090D30110508F078C001E00E9446
:10084000F40E21601496AE15BF0509F03BCF20933E
:100850001A0230931B0240931C0250931D0200E2C7
:100860000E940F0F209318023093190287E090E046
:10087000909317028093160280E390E090931F02FA
:1008800080931E0281E090E0DFC04CEB51E0BE019E
:100890006F5F7F4FCE0103960E94310A5C010330E7
:1008A000110571F04CEB51E0BE016F5F7F4FCE013F
:1008B00003960E94310A4C0103301105D9F40DC092
:1008C0004CEB51E0BE016F5F7F4FCE0103960E945B
:1008D000310AA816B90631F386CE4CEB51E0BE01C1
:1008E0006F5F7F4FCE0103960E94310A88169906EA
:1008F00009F079CEA114B10459F48A94892809F039
:1009000072CECC0CDD1CEE1CFF1C6894C0F80BC032
:10091000AA94AB2809F067CE892809F064CECC0CE4
:10092000DD1CEE1CFF1C0F5F1F4F8BCE12960D912E
:100930001C911397045011090530110508F0CBCE16
:1009400001E00E94F40E7ECF2091FF01CF01820FC3
:10095000911D820F911DDC0112978D919C910A9738
:10096000099708F0C2CE10921F0210921E028FEF5C
:100970009FEFDC0180931A0290931B02A0931C024C
:10098000B0931D025EC0D90112966D917C911397B0
:10099000665171096131710568F5D701C601880F8B
:1009A000991FAA1FBB1F6C017D016894C0F84E5FA0
:1009B0005F4F2C5F3F4F4332510509F0AECE9F0190
:1009C0002A5B3F4FD9012D913C912A5031092930A2
:1009D000310508F0ABCE20E130E030931F022093C8
:1009E0001E02C0921A02D0921B02E0921C02F092E8
:1009F0001D0227C0D90112966D917C911397665004
:100A000071096730710508F091CECC0CDD1CEE1C2D
:100A1000FF1CCDCF82E0809333011092FF0180E074
:100A200090E012C080931A0290931B02A0931C02C4
:100A3000B0931D0281E090E090931702809316021C
:100A400021CF88E090E0F8CF26960FB6F894DEBF6D
:100A50000FBECDBFDF91CF911F910F91FF90EF900F
:100A6000DF90CF90BF90AF909F908F907F906F90CE
:100A70005F904F903F902F900895833081F028F43D
:100A8000813099F08230A1F008958730A9F0883044
:100A9000B9F08430D1F4809180008F7D03C08091C3
:100AA00080008F7780938000089584B58F7702C08F
:100AB00084B58F7D84BD08958091B0008F7703C089
:100AC0008091B0008F7D8093B00008953FB7F89477
:100AD0008091120290911302A0911402B09115021C
:100AE00026B5A89B05C02F3F19F00196A11DB11D89
:100AF0003FBFBA2FA92F982F8827820F911DA11DC4
:100B0000B11DBC01CD0142E0660F771F881F991F00
:100B10004A95D1F708958F929F92AF92BF92CF924C
:100B2000DF92EF92FF926B017C010E9466054B0100
:100B30005C01C114D104E104F104F1F00E946605E6
:100B4000DC01CB0188199909AA09BB09883E9340A9
:100B5000A105B10570F321E0C21AD108E108F1083E
:100B600088EE880E83E0981EA11CB11CC114D1042C
:100B7000E104F10419F7DDCFFF90EF90DF90CF9003
:100B8000BF90AF909F908F900895CF92DF92EF9299
:100B9000FF920F931F93CF93DF936C017A018B0128
:100BA000C0E0D0E0CE15DF0581F0D8016D918D0158
:100BB000D601ED91FC910190F081E02DC6010995DF
:100BC000892B11F02196EECF7E01C701DF91CF91E5
:100BD0001F910F91FF90EF90DF90CF9008950895AF
:100BE00080E090E008950E94310F1F93CF93DF9330
:100BF000282F30E0F901E255FF4F8491F901E656C4
:100C0000FF4FD491F901EA57FF4FC491CC23C1F0B3
:100C1000162F81110E943D05EC2FF0E0EE0FFF1F13
:100C2000E458FF4FA591B4919FB7F894111104C0F7
:100C30008C91D095D82302C0EC91DE2BDC939FBF22
:100C4000DF91CF911F910895CF93DF93EC0160E086
:100C50008E810E94F50561E08E810E94F50560E0BD
:100C60008E810E94F5058BE891E00197F1F7DF9105
:100C7000CF910895CF93DF9390E0FC01E656FF4FAC
:100C80002491FC01EA57FF4F8491882361F190E0A1
:100C9000880F991FFC01EE58FF4FC591D491FC01BC
:100CA000E458FF4FA591B491611109C09FB7F89422
:100CB0008881209582238883EC912E230BC062309B
:100CC00061F49FB7F8948881322F3095832388830D
:100CD000EC912E2B2C939FBF06C08FB7F894E88120
:100CE0002E2B28838FBFDF91CF9108951F920F92F3
:100CF0000FB60F9211242F933F938F939F93AF932F
:100D0000BF9380910E0290910F02A0911002B091BA
:100D1000110230910D0223E0230F2D3720F40196AC
:100D2000A11DB11D05C026E8230F0296A11DB11D0E
:100D300020930D0280930E0290930F02A093100255
:100D4000B09311028091120290911302A0911402AB
:100D5000B09115020196A11DB11D809312029093CE
:100D60001302A0931402B0931502BF91AF919F910B
:100D70008F913F912F910F900FBE0F901F9018955C
:100D8000CF92DF92EF92FF920F931F93CF93DF9357
:100D90006C017C0187E0E80EF11CC0E0D0E0062F7A
:100DA00010E0B8010C2E02C0759567950A94E2F721
:100DB0006170F70181917F010E94F5052196C43091
:100DC000D10579F7C601DF91CF911F910F91FF9067
:100DD000EF90DF90CF900C942406CF92DF92EF92A9
:100DE000FF920F931F93CF93DF93EC01F62E642FA6
:100DF0008C810E94F5058D818F3F19F060E00E9483
:100E0000F5058F850F2D10E084FF25C06E0187E06A
:100E1000C80ED11CE12CF12CB8010E2C02C0759526
:100E200067950A94E2F76170F60181916F010E9463
:100E3000F505FFEFEF1AFF0A88E0E816F10461F705
:100E4000CE01DF91CF911F910F91FF90EF90DF9036
:100E5000CF900C942406B80184E0759567958A9527
:100E6000E1F7CE010E94C0066F2DCE01DF91CF9138
:100E70001F910F91FF90EF90DF90CF900C94C006E0
:100E800041E00E94ED0681E090E008951F920F92EC
:100E90000FB60F9211242F933F934F935F936F934D
:100EA0007F938F939F93AF93BF93CF93DF93EF93F2
:100EB000FF932091320130E0F901E255FF4F849118
:100EC000F901E656FF4FD491F901EA57FF4FC4915B
:100ED000CC2379F081110E943D05EC2FF0E0EE0F5C
:100EE000FF1FE859FF4FA591B491EC91ED2381E0EC
:100EF00009F480E020913501309136012F5F3F4F9A
:100F000030933601209335019091FF01943618F00B
:100F100095E090933301909133019330B9F018F438
:100F2000923039F057C0943059F1953009F44CC0E3
:100F300051C081114FC020913501309136012436C6
:100F4000310508F443C01092FF011CC0813009F044
:100F500041C0E091FF0191E09E0F9093FF01F0E00E
:100F60002091350130913601EE0FFF1FEE5CFE4FF0
:100F700036832583109236011092350194E021C00A
:100F8000811117C0E091FF0191E09E0F9093FF0146
:100F9000F0E02091350130913601EE0FFF1FEE5C3D
:100FA000FE4F36832583109236011092350193E06F
:100FB00008C020913501309136012536310550F0B9
:100FC00095E09093330106C0811104C01092360160
:100FD0001092350190913401992329F0811102C0BA
:100FE0002D9A01C02D98FF91EF91DF91CF91BF9184
:100FF000AF919F918F917F916F915F914F913F91B1
:101000002F910F900FBE0F901F901895CF92DF92E7
:10101000EF92FF92CF93DF93EC01072E000C880B29
:10102000990B0E94BD0D6B017C0120E030E040E493
:101030005FE30E94720E20E030E048E452E40E9438
:10104000130D0E94850DC617D707D4F020E030E0BD
:1010500040EA5FE3C701B6010E94720E20E030E073
:1010600048E452E40E94130D20E030E040E85FE3E2
:101070000E94A20C0E94850D21E06C177D070CF4E4
:1010800020E0822F90E0DF91CF91FF90EF90DF90F2
:10109000CF90089540E0682F85E292E00C94ED0631
:1010A00081E00E944A088BE39FE10197F1F70895E0
:1010B000CF93DF93823028F0909134029860909320
:1010C0003402809338021092390280E480933A020D
:1010D00080E180933B0280E580933C0261E0809157
:1010E00029020E943A0680912A028F3F19F061E09E
:1010F0000E943A0661E080912B020E943A06C5E206
:10110000D2E09E01255232408091340284FD03C01A
:1011100084E090E002C088E090E02196281739072B
:101120002CF461E08E810E943A06EBCF8BE39DE0C8
:101130000197F1F760E0809129020E94F50560E0D7
:1011400080912B020E94F50580912A028F3F19F0B1
:1011500060E00E94F5058091340284FD20C063E0C8
:1011600085E292E00E94C006CBE4D6E4CE0101976E
:10117000F1F763E085E292E00E94C0062197F1F763
:1011800063E085E292E00E94C00683E592E0019769
:10119000F1F762E085E292E00E94C00615C080622D
:1011A0000E944A088BE496E40197F1F7809134029B
:1011B00080620E944A0883E592E00197F1F78091EE
:1011C000340280620E944A088091340280620E9448
:1011D0004A0884E0809335028CE00E944A080E940D
:1011E000500882E08093360286E0DF91CF910C9424
:1011F0004A08009769F0FC0101900020E9F7319757
:10120000AF01481B590BBC0185E292E00C94C50567
:1012100080E090E008958F929F92AF92BF920F93DB
:101220001F93CF93DF93CDB7DEB7A1970FB6F89496
:10123000DEBF0FBECDBF19A2423008F44AE08E01D6
:101240000F5D1F4F842E912CA12CB12CA501940170
:101250000E94700CE62FB901CA0101501109EA3051
:1012600014F4E05D01C0E95CD801EC93232B242B3E
:10127000252B61F7C8010E94F908A1960FB6F894D2
:10128000DEBF0FBECDBFDF91CF911F910F91BF90F9
:10129000AF909F908F9008958F929F92AF92BF9240
:1012A000CF92DF92EF92FF920F931F93CF93DF9332
:1012B0006B017C01142F9B01AC010E94DF0E88237F
:1012C00019F086E291E027C046015701E894B7F88B
:1012D0002FEF3FEF4FE75FE7C501B4010E94DF0E3C
:1012E00081110DC02FEF3FEF4FE75FE7C501B4015C
:1012F0000E940E0D18161CF48AE291E00CC02FEF2C
:101300003FEF4FE75FE4C701B6010E946D0E18166C
:1013100084F48EE291E0DF91CF911F910F91FF90C5
:10132000EF90DF90CF90BF90AF909F908F900C94F4
:10133000F9082FEF3FEF4FE75FECC701B6010E94BE
:101340000E0D87FDE6CF20E030E0A901C701B60110
:101350000E940E0D87FF0DC041E06DE285E292E034
:101360000E94ED06F7FAF094F7F8F094C1E0D0E0AF
:1013700002C0C0E0D0E000E060E070E080E09FE309
:10138000101741F020E030E040E251E40E94130DDC
:101390000F5FF6CFA70196010E94A20C6B017C01A2
:1013A0000E948C0D4B015C014AE00E940B09C80FA2
:1013B000D91F1123B9F1C501B4010E94BB0D9B01D6
:1013C000AC01C701B6010E94A10C6B017C0141E098
:1013D0006EE285E292E00E94ED06219620E030E088
:1013E00040E251E4C701B6010E94720E4B015C015C
:1013F0000E948C0D6B01E12CF12C4AE0C701B60173
:101400000E940B09C80FD91FC701B6010E94BB0D6E
:101410009B01AC01C501B4010E94A10C6B017C01D0
:101420001150E1F6CE01DF91CF911F910F91FF9006
:10143000EF90DF90CF90BF90AF909F908F900895E6
:10144000843008F083E090913802891710F08FEF14
:10145000890FE82FF0E0EB5DFD4F848980680C94E4
:101460004A088F929F92AF92BF92CF92DF92EF92F3
:10147000FF920F931F93CF93DF93FC012081318163
:10148000E0912202F09123022E173F070CF04FC08B
:10149000F901EE0FFF1FA0912002B0912102EA0F87
:1014A000FB1FA080B180217033276901F1E0CF26B6
:1014B000232B19F42CE93FEF02C024E630E07A0137
:1014C0008B01EC014901840E951EB401C5010E94F7
:1014D0000608892B99F48E0C9F1CB401C5010E944B
:1014E0000608892B71F4B701680D791DC5010E94AA
:1014F0000608892BF9F023E030E005C021E030E058
:1015000002C022E030E0F8018081918101968217CB
:1015100093071CF49183808308C0F8011182108224
:1015200088819981019699838883C60105C081E0ED
:1015300090E002C08FEF9FEFDF91CF911F910F914D
:10154000FF90EF90DF90CF90BF90AF909F908F90E3
:101550000895789484B5826084BD84B5816084BD2B
:1015600085B5826085BD85B5816085BD80916E0041
:10157000816080936E001092810080918100826072
:1015800080938100809181008160809381008091AF
:1015900080008160809380008091B100846080939E
:1015A000B1008091B00081608093B00080917A009A
:1015B000846080937A0080917A00826080937A00C0
:1015C00080917A00816080937A0080917A008068AF
:1015D00080937A001092C100F89482E08093B0006A
:1015E0008093B10094E69093B3001092B200809380
:1015F00070007894809333011092FF018091320142
:1016000060E00E943A0682E00E9458082BE9222EF0
:10161000312C30E0E32E30E0F32E412C40EC542E00
:1016200049E7642E44EC742E0E948C00892BD1F182
:1016300080E00E94200AC2E0C09333011092FF01B3
:101640008CE091E00E94F90860911A0270911B02EF
:1016500080911C0290911D0240E10E940B096CE2F6
:1016600071E080E090E00E948B050E948C0081E098
:101670000E94200AC09333011092FF018CE091E098
:101680000E94F90860911A0270911B0280911C025D
:1016900090911D0240E10E940B0968EE73E080E02A
:1016A00090E0D3C0E2EAF0E0D491EEE8F0E084917B
:1016B000E82FF0E0EE0FFF1FE859FF4F059114915E
:1016C000109208021092090210920A0210920B0264
:1016D00010920C0261E088E00E943A0660E088E027
:1016E0000E94F50562E170E080E090E00E948B05C9
:1016F00061E088E00E94F505C1010197F1F760E023
:1017000088E00E943A0680E991E0F80120812D23CB
:1017100019F40197D1F7A4C080E991E0F801208184
:101720002D2319F00197D1F79BC088E2D82EC0E88D
:10173000C12C80E991E0F80120812D2319F4019753
:10174000D1F78EC00E9466054B015C0180E991E0F3
:10175000F80120812D2319F00197D1F781C00E9453
:101760006605DC01CB0188199909AA09BB0989978B
:10177000A105B10538F0EC2DF0E0E050FE4F80857A
:101780008C2B8087C69511F4C394C0E8DA94D110ED
:10179000D0CF61E088E00E943A0661E088E00E94D4
:1017A000F5056091080270E080E090E00E94BB0DBA
:1017B00060930002709301028093020290930302EF
:1017C00060910A0270E080E090E00E94BB0D60939F
:1017D000040270930502809306029093070280E052
:1017E0000E94200A80E191E00E94F90860910402C1
:1017F00070910502809106029091070242E00E94DA
:101800004C0941E06FED85E292E00E94ED0687E130
:1018100091E00E94F90881E00E94200A89E191E0AC
:101820000E94F90860910002709101028091020209
:101830009091030242E00E944C0984E291E00E94F0
:10184000F90860ED77E080E090E00E948B050E944F
:101850005008E114F10409F4E7CE0E940000E4CE40
:1018600040920002509201026092020270920302C2
:1018700040920402509205026092060270920702A2
:10188000AECFE5E2F2E01382128284E091E0918330
:10189000808382E084838FEF858384E0868385E084
:1018A000878386E0808787E0818789E08287138647
:1018B000148615861686178681E00E945808E2E392
:1018C000F1E08AE08083128208950E94920CA59F25
:1018D000900DB49F900DA49F800D911D112408952B
:1018E000A1E21A2EAA1BBB1BFD010DC0AA1FBB1F24
:1018F000EE1FFF1FA217B307E407F50720F0A21B96
:10190000B30BE40BF50B661F771F881F991F1A9402
:1019100069F760957095809590959B01AC01BD012C
:10192000CF010895A29FB001B39FC001A39F700D86
:10193000811D1124911DB29F700D811D1124911DD7
:1019400008955058BB27AA270E94B90C0C94330E57
:101950000E94250E38F00E942C0E20F039F49F3F93
:1019600019F426F40C94220E0EF4E095E7FB0C9487
:101970001C0EE92F0E94440E58F3BA176207730732
:101980008407950720F079F4A6F50C94660E0EF402
:10199000E0950B2EBA2FA02D0B01B90190010C017F
:1019A000CA01A0011124FF27591B99F0593F50F497
:1019B000503E68F11A16F040A22F232F342F4427EF
:1019C000585FF3CF469537952795A795F0405395E7
:1019D000C9F77EF41F16BA0B620B730B840BBAF0B7
:1019E0009150A1F0FF0FBB1F661F771F881FC2F722
:1019F0000EC0BA0F621F731F841F48F48795779536
:101A00006795B795F7959E3F08F0B0CF9395880FEF
:101A100008F09927EE0F9795879508950E94F80D85
:101A200008F481E008950E94270D0C94330E0E9463
:101A30002C0E58F00E94250E40F029F45F3F29F04B
:101A40000C941C0E51110C94670E0C94220E0E94E3
:101A5000440E68F39923B1F3552391F3951B550B6D
:101A6000BB27AA2762177307840738F09F5F5F4F71
:101A7000220F331F441FAA1FA9F335D00E2E3AF0B0
:101A8000E0E832D091505040E695001CCAF72BD0C8
:101A9000FE2F29D0660F771F881FBB1F2617370719
:101AA0004807AB07B0E809F0BB0B802DBF01FF274B
:101AB00093585F4F3AF09E3F510578F00C941C0EFE
:101AC0000C94670E5F3FE4F3983ED4F386957795C8
:101AD0006795B795F7959F5FC9F7880F911D969504
:101AE000879597F90895E1E0660F771F881FBB1F60
:101AF000621773078407BA0720F0621B730B840B0D
:101B0000BA0BEE1F88F7E09508950E948C0D68943B
:101B1000B1110C94670E08950E944C0E88F09F57E7
:101B200098F0B92F9927B751B0F0E1F0660F771F01
:101B3000881F991F1AF0BA95C9F714C0B13091F0F7
:101B40000E94660EB1E008950C94660E672F782F00
:101B50008827B85F39F0B93FCCF3869577956795BC
:101B6000B395D9F73EF490958095709561957F4F28
:101B70008F4F9F4F0895E89409C097FB3EF49095CE
:101B80008095709561957F4F8F4F9F4F9923A9F056
:101B9000F92F96E9BB279395F695879577956795E5
:101BA000B795F111F8CFFAF4BB0F11F460FF1BC029
:101BB0006F5F7F4F8F4F9F4F16C0882311F096E9BC
:101BC00011C0772321F09EE8872F762F05C066236A
:101BD00071F096E8862F70E060E02AF09A95660F23
:101BE000771F881FDAF7880F9695879597F90895DC
:101BF000990F0008550FAA0BE0E8FEEF161617061E
:101C0000E807F907C0F012161306E407F50798F085
:101C1000621B730B840B950B39F40A2661F0232B9E
:101C2000242B252B21F408950A2609F4A140A6951A
:101C30008FEF811D811D089597F99F6780E870E0FF
:101C400060E008959FEF80EC089500240A94161632
:101C5000170618060906089500240A94121613069A
:101C6000140605060895092E0394000C11F4882328
:101C700052F0BB0F40F4BF2B11F460FF04C06F5F44
:101C80007F4F8F4F9F4F089557FD9058440F551F1A
:101C900059F05F3F71F04795880F97FB991F61F0EE
:101CA0009F3F79F087950895121613061406551F65
:101CB000F2CF4695F1DF08C0161617061806991FD1
:101CC000F1CF86957105610508940895E894BB27C6
:101CD00066277727CB0197F908950E94F80D08F43D
:101CE0008FEF08950E94850E0C94330E0E94250EEE
:101CF00038F00E942C0E20F0952311F00C941C0E4D
:101D00000C94220E11240C94670E0E94440E70F362
:101D1000959FC1F3950F50E0551F629FF001729F90
:101D2000BB27F00DB11D639FAA27F00DB11DAA1F9F
:101D3000649F6627B00DA11D661F829F2227B00DEC
:101D4000A11D621F739FB00DA11D621F839FA00D77
:101D5000611D221F749F3327A00D611D231F849FC7
:101D6000600D211D822F762F6A2F11249F5750401E
:101D70009AF0F1F088234AF0EE0FFF1FBB1F661F99
:101D8000771F881F91505040A9F79E3F510580F062
:101D90000C941C0E0C94670E5F3FE4F3983ED4F352
:101DA000869577956795B795F795E7959F5FC1F706
:101DB000FE2B880F911D9695879597F908950E949F
:101DC000F80D880B990B0895DB018F939F930E9468
:101DD000650CBF91AF91A29F800D911DA39F900DA7
:101DE000B29F900D112408950F93083090F0982F12
:101DF000872F762F652F542F432F322F22270850FD
:101E0000F4CF220F331F441F551F661F771F881FF3
:101E1000991F0A95B2F70F91089597FB10F8169441
:101E200000080F93083098F00850232F342F452FC7
:101E3000562F672F782F892F902DF4CF05949795E3
:101E400087957795679557954795379527950A957F
:101E5000AAF70F910895EE0FFF1F0590F491E02D62
:101E6000099481E090E0F8940C94360FF894FFCF39
:101E7000000000004007C505F005EF0549523D0090
:101E800054656D703A2000430048756D696469744B
:101E9000793A200025006E616E00696E66006F76EB
:021EA0006600DA
:00000001FF
