:100000000C9462000C948A000C948A000C948A0070
:100010000C948A000C948A000C948A000C94860735
:100020000C948A000C948A000C948A000C948A0028
:100030000C948A000C948A000C948A000C948A0018
:100040000C94B6060C948A000C948A000C948A00D6
:100050000C948A000C948A000C948A000C948A00F8
:100060000C948A000C948A000000000024002700F1
:100070002A0000000000250028002B0000000000DE
:1000800023002600290004040404040404040202DA
:100090000202020203030303030301020408102007
:1000A0004080010204081020010204081020000012
:1000B0000008000201000003040700000000000027
:1000C0000000A40C11241FBECFEFD8E0DEBFCDBFCF
:1000D00011E0A0E0B1E0E6E3FFE102C005900D927F
:1000E000A233B107D9F722E0A2E3B1E001C01D922B
:1000F000AE33B207E1F710E0C2E6D0E004C02197CA
:10010000FE010E948E0FC136D107C9F70E94C80AAE
:100110000C94990F0C9400002F923F924F925F9293
:100120006F927F928F929F92AF92BF92CF92DF9207
:10013000EF92FF920F931F93CF93DF9300D000D0E5
:1001400000D0CDB7DEB787E391E090932202809391
:1001500021028091FF0190E090932402809323027A
:1001600080913301853009F05AC480913901909112
:100170003A01885891098D35910588F48091FF01E5
:10018000843041F480913B0190913C0180974797E6
:1001900008F47FC08091FF01843408F061C0809131
:1001A000FF018A3108F4C8C080913701909138016D
:1001B000843F914080F41092200210921F028FEF32
:1001C0009FEFDC0180931B0290931C02A0931D0201
:1001D000B0931E0242C08091390190913A018597F7
:1001E0004B9708F0A9C0EDE3F1E082E090E040E039
:1001F00050E0BA012091FF0130E0DC011196A21716
:10020000B30754F4DF0112972D913C912750310927
:100210002730310508F475C001979595879590931F
:10022000200280931F020C972CF41092200210924F
:100230001F0282C040931B0250931C0260931D0258
:1002400070931E0282E090E0F7C340931B0250932C
:100250001C0260931D0270931E0289E090E0ECC3C3
:1002600080913B0190913C01825491098E9708F056
:1002700096CF20E030E080E090E0DC01F901E35C23
:10028000FE4F40815181495051094930510588F054
:1002900086CF80913D0190913E010997099708F022
:1002A00079CF1092200210921F028FEF9FEFDC0196
:1002B000B9C3F901E15CFE4F4081518146515109BA
:1002C0004131510588F4880F991FAA1FBB1F816017
:1002D0002C5F3F4F2038310589F620E230E0309323
:1002E000200220931F029EC3408151814650510934
:1002F0004730510508F053CF880F991FAA1FBB1F25
:10030000E7CF20813181235131092F30310540F46D
:10031000440F551F661F771F4160029634966ACFBF
:10032000208131812A5031092930310528F4440FC8
:10033000551F661F771FF1CF8091FF018A3108F4A6
:100340005AC080913701909138018032934008F46F
:1003500032CF8091390190913A01C697869708F083
:100360004AC080913B0190913C01C697869708F066
:1003700042C0EFE3F1E083E090E040E050E0BA01FA
:100380002091FF0130E0DC011196A217B3074CF475
:10039000DF0112972D913C912C5031092B30310502
:1003A00078F00197959587959093200280931F028E
:1003B0000C970CF04ACF1092200210921F021BC023
:1003C00020813181255231092B31310570F0208196
:1003D00031812C5031092A30310568F4440F551F02
:1003E000661F771F02963496CBCF440F551F661FAA
:1003F000771F4160F7CF8091FF01823208F457C028
:100400008091390190913A010697079708F04FC003
:10041000EDE3F1E082E090E040E050E0BA018C01D1
:100420000F5F1F4F2091FF0130E002171307C4F444
:10043000DF0112972D913C9111972E5131092731EF
:10044000310538F5440F551F661F771F4160208125
:1004500031813496235031092530310530F1C801FE
:100460000197959587959093200280931F0240975E
:100470002CF41092200210921F0219C040931B020C
:1004800050931C0260931D0270931E028AE090E05C
:10049000D3C22D913C912C5031092B30310538F4C9
:1004A000440F551F661F771FD2CF0296B8CF809199
:1004B000FF018D3048F48091230290912402181698
:1004C00019060CF483C08FC081E090E09C838B837D
:1004D0001A82198249E753E0BE016F5F7F4FCE0158
:1004E00003960E94500A892B21F080E090E0DC0105
:1004F00067C049E753E0BE016F5F7F4FCE010396AF
:100500000E94500A019789F749E753E0BE016F5FE7
:100510007F4FCE0103960E94500A892B31F700E0ED
:1005200010E0C12CD12C76018091FF0190E02B814D
:100530003C812817390774F549E753E0BE016F5F26
:100540007F4FCE0103960E94500A5C0149E753E0B9
:10055000BE016F5F7F4FCE0103960E94500AB1E04B
:10056000AB16B10451F4892B09F0BFCFCC0CDD1CC4
:10057000EE1CFF1C6894C0F80AC0AB2809F0B5CF88
:10058000019709F0B2CFCC0CDD1CEE1CFF1C0F5FF5
:100590001F4FCACF1093200200931F02C0921B026C
:1005A000D0921C02E0921D02F0921E0283E090E0C5
:1005B000909318028093170281E090E0A0E0B0E0F1
:1005C000892B8A2B8B2B09F05DC175CF81E090E0E0
:1005D0009C838B83E0912102F0912202828193819E
:1005E00089974E9720F080E090E0DC014AC082E0DD
:1005F00090E09C838B83848195810B970A9798F771
:1006000083E090E09C838B831A8219824CEB51E04B
:10061000BE016F5F7F4FCE0103960E94500A892B67
:1006200011F74CEB51E0BE016F5F7F4FCE01039697
:100630000E94500A0197B9F600E010E0C12CD12CBD
:10064000760120912302309124028B819C818217B4
:1006500093070CF41AC11093200200931F02C0925A
:100660001B02D0921C02E0921D02F0921E0284E056
:1006700090E0909318028093170281E090E0A0E050
:10068000B0E0892B8A2B8B2B09F0FCC0E091210272
:10069000F091220282819381C6978697E0F484814B
:1006A00095814B974597B8F4DF0116967F0126ECAC
:1006B000E20EF11C20E030E040E050E060E070E04D
:1006C00080E090E00D911C911197095011090830BC
:1006D000110508F4A9C08091FF01823231F48281B2
:1006E00093810A97099708F42FC1828193818957D2
:1006F000910983359105D0F48091FF018132B0F0EA
:1007000084819581CA97899788F49F012A5F3F4F1A
:10071000C12CD12C760143E050E0D9016D917C9140
:100720006A5071096930710508F42DC18091230266
:10073000909124029E838D8306970CF46BC18F01E8
:100740000E5F1F4F73E0272E312CE5ECCE2EEDE926
:10075000DE2EECE1EE2EE1E8FE2ED80114966D912E
:100760007C911597AD90BC9080E090E00E941E0EA9
:100770002B013C01B50180E090E00E941E0E4B0170
:100780005C012DEC3CEC4CE45FE30E94D50E9B0138
:10079000AC01C301B2010E94710D87FD17C02DECA1
:1007A0003CEC4CE45FE3C301B2010E94D50E9B0117
:1007B000AC01C501B4010E94710DE82F880FFF0B39
:1007C000EE27FF0FEE1FFF27319602C0E0E0F0E0BA
:1007D000A701960163E971E080E091E00E94470F74
:1007E0006F01FF0FEE08FF08C626D726E826F92678
:1007F000BFEF2B1A3B0A0E5F1F4FED81FE81E21502
:10080000F30509F0AACFC0921B02D0921C02E0921D
:100810001D02F0921E0280E290E0909320028093ED
:100820001F028FEF9FEF08C112960D911C91139735
:10083000015111090D30110508F078C001E00E9446
:10084000570F21601496AE15BF0509F03BCF2093DA
:100850001B0230931C0240931D0250931E0200E2C3
:100860000E94720F2093190230931A0287E090E0E1
:10087000909318028093170280E390E090932002F7
:1008800080931F0281E090E0DFC04CEB51E0BE019D
:100890006F5F7F4FCE0103960E94500A5C010330C8
:1008A000110571F04CEB51E0BE016F5F7F4FCE013F
:1008B00003960E94500A4C0103301105D9F40DC073
:1008C0004CEB51E0BE016F5F7F4FCE0103960E945B
:1008D000500AA816B90631F386CE4CEB51E0BE01A2
:1008E0006F5F7F4FCE0103960E94500A88169906CB
:1008F00009F079CEA114B10459F48A94892809F039
:1009000072CECC0CDD1CEE1CFF1C6894C0F80BC032
:10091000AA94AB2809F067CE892809F064CECC0CE4
:10092000DD1CEE1CFF1C0F5F1F4F8BCE12960D912E
:100930001C911397045011090530110508F0CBCE16
:1009400001E00E94570F7ECF2091FF01CF01820F5F
:10095000911D820F911DDC0112978D919C910A9738
:10096000099708F0C2CE1092200210921F028FEF5A
:100970009FEFDC0180931B0290931C02A0931D0249
:10098000B0931E025EC0D90112966D917C911397AF
:10099000665171096131710568F5D701C601880F8B
:1009A000991FAA1FBB1F6C017D016894C0F84E5FA0
:1009B0005F4F2C5F3F4F4332510509F0AECE9F0190
:1009C0002A5B3F4FD9012D913C912A5031092930A2
:1009D000310508F0ABCE20E130E0309320022093C7
:1009E0001F02C0921B02D0921C02E0921D02F092E4
:1009F0001E0227C0D90112966D917C911397665003
:100A000071096730710508F091CECC0CDD1CEE1C2D
:100A1000FF1CCDCF82E0809333011092FF0180E074
:100A200090E012C080931B0290931C02A0931D02C1
:100A3000B0931E0281E090E0909318028093170219
:100A400021CF88E090E0F8CF26960FB6F894DEBF6D
:100A50000FBECDBFDF91CF911F910F91FF90EF900F
:100A6000DF90CF90BF90AF909F908F907F906F90CE
:100A70005F904F903F902F9008958E3008F08E50E9
:100A80008770806480937C0080917A00806480937A
:100A90007A0080917A0086FDFCCF809178002091C9
:100AA000790090E0922B0895833081F028F4813012
:100AB00099F08230A1F008958730A9F08830B9F01C
:100AC0008430D1F4809180008F7D03C080918000BC
:100AD0008F7780938000089584B58F7702C084B5A6
:100AE0008F7D84BD08958091B0008F7703C0809181
:100AF000B0008F7D8093B0000895CF93DF93282FAF
:100B000030E0F901E255FF4F8491F901E656FF4FBD
:100B1000D491F901EA57FF4FC491CC2391F0811190
:100B20000E945405EC2FF0E0EE0FFF1FE458FF4F3A
:100B3000A591B491EC91ED2381E090E021F480E067
:100B400002C080E090E0DF91CF9108953FB7F89424
:100B50008091130290911402A0911502B091160297
:100B600026B5A89B05C02F3F19F00196A11DB11D08
:100B70003FBFBA2FA92F982F8827820F911DA11D43
:100B8000B11DBC01CD0142E0660F771F881F991F80
:100B90004A95D1F708958F929F92AF92BF92CF92CC
:100BA000DF92EF92FF926B017C010E94A6054B0140
:100BB0005C01C114D104E104F104F1F00E94A60526
:100BC000DC01CB0188199909AA09BB09883E934029
:100BD000A105B10570F321E0C21AD108E108F108BE
:100BE00088EE880E83E0981EA11CB11CC114D104AC
:100BF000E104F10419F7DDCFFF90EF90DF90CF9083
:100C0000BF90AF909F908F900895CF92DF92EF9218
:100C1000FF920F931F93CF93DF936C017A018B01A7
:100C2000C0E0D0E0CE15DF0581F0D8016D918D01D7
:100C3000D601ED91FC910190F081E02DC60109955E
:100C4000892B11F02196EECF7E01C701DF91CF9164
:100C50001F910F91FF90EF90DF90CF90089508952E
:100C600080E090E008950E94940F1F93CF93DF934C
:100C7000282F30E0F901E255FF4F8491F901E65643
:100C8000FF4FD491F901EA57FF4FC491CC23C1F033
:100C9000162F81110E945405EC2FF0E0EE0FFF1F7C
:100CA000EE58FF4FA591B4919FB7F894111104C06D
:100CB0008C91D095D82302C0EC91DE2BDC939FBFA2
:100CC000DF91CF911F910895CF93DF93EC0160E006
:100CD0008E810E94350661E08E810E94350660E0BB
:100CE0008E810E9435068BE891E00197F1F7DF9144
:100CF000CF910895CF93DF9390E0FC01E656FF4F2C
:100D00002491FC01EA57FF4F8491882361F190E020
:100D1000880F991FFC01E859FF4FC591D491FC0140
:100D2000EE58FF4FA591B491611109C09FB7F89497
:100D30008881209582238883EC912E230BC062301A
:100D400061F49FB7F8948881322F3095832388838C
:100D5000EC912E2B2C939FBF06C08FB7F894E8819F
:100D60002E2B28838FBFDF91CF9108951F920F9272
:100D70000FB60F9211242F933F938F939F93AF93AE
:100D8000BF9380910F0290911002A0911102B09137
:100D9000120230910E0223E0230F2D3720F401962A
:100DA000A11DB11D05C026E8230F0296A11DB11D8E
:100DB00020930E0280930F0290931002A0931102D1
:100DC000B09312028091130290911402A091150227
:100DD000B09116020196A11DB11D8093130290934C
:100DE0001402A0931502B0931602BF91AF919F9188
:100DF0008F913F912F910F900FBE0F901F901895DC
:100E0000CF92DF92EF92FF920F931F93CF93DF93D6
:100E10006C017C0187E0E80EF11CC0E0D0E0062FF9
:100E200010E0B8010C2E02C0759567950A94E2F7A0
:100E30006170F70181917F010E9435062196C430CF
:100E4000D10579F7C601DF91CF911F910F91FF90E6
:100E5000EF90DF90CF900C946406CF92DF92EF92E8
:100E6000FF920F931F93CF93DF93EC01F62E642F25
:100E70008C810E9435068D818F3F19F060E00E94C1
:100E800035068F850F2D10E084FF25C06E0187E0A9
:100E9000C80ED11CE12CF12CB8010E2C02C07595A6
:100EA00067950A94E2F76170F60181916F010E94E3
:100EB0003506FFEFEF1AFF0A88E0E816F10461F744
:100EC000CE01DF91CF911F910F91FF90EF90DF90B6
:100ED000CF900C946406B80184E0759567958A9567
:100EE000E1F7CE010E9400076F2DCE01DF91CF9177
:100EF0001F910F91FF90EF90DF90CF900C9400071F
:100F000041E00E942D0781E090E008951F920F922A
:100F10000FB60F9211242F933F934F935F936F93CC
:100F20007F938F939F93AF93BF93EF93FF938091A2
:100F300032010E947D0520913501309136012F5FED
:100F40003F4F30933601209335019091FF01943645
:100F500018F095E090933301909133019330B9F0FC
:100F600018F4923039F057C0943059F1953009F4A3
:100F70004CC051C081114FC02091350130913601D4
:100F80002436310508F443C01092FF011CC08130A3
:100F900009F041C0E091FF0191E09E0F9093FF01A5
:100FA000F0E02091350130913601EE0FFF1FEE5C2D
:100FB000FE4F36832583109236011092350194E05E
:100FC00021C0811117C0E091FF0191E09E0F909325
:100FD000FF01F0E02091350130913601EE0FFF1F47
:100FE000EE5CFE4F36832583109236011092350158
:100FF00093E008C020913501309136012536310546
:1010000050F095E09093330106C0811104C0109216
:1010100036011092350190913401992329F0811104
:1010200002C02D9A01C02D98FF91EF91BF91AF9111
:101030009F918F917F916F915F914F913F912F91F0
:101040000F900FBE0F901F901895CF92DF92EF92E6
:10105000FF92CF93DF93EC01072E000C880B990BC6
:101060000E94200E6B017C0120E030E040E45FE351
:101070000E94D50E20E030E048E452E40E94760D54
:101080000E94E80DC617D707D4F020E030E040EA10
:101090005FE3C701B6010E94D50E20E030E048E4CE
:1010A00052E40E94760D20E030E040E85FE30E94C9
:1010B000050D0E94E80D21E06C177D070CF420E07F
:1010C000822F90E0DF91CF91FF90EF90DF90CF9053
:1010D000089540E0682F86E292E00C942D0781E0AD
:1010E0000E9469088BE39FE10197F1F70895CF9380
:1010F000DF93823028F0909135029860909335020A
:101100008093390210923A0280E480933B0280E19E
:1011100080933C0280E580933D0261E080912A0249
:101120000E947A0680912B028F3F19F061E00E94A5
:101130007A0661E080912C020E947A06C6E2D2E033
:101140009E01265232408091350284FD03C084E026
:1011500090E002C088E090E02196281739072CF42F
:1011600061E08E810E947A06EBCF8BE39DE00197D0
:10117000F1F760E080912A020E94350660E08091DC
:101180002C020E94350680912B028F3F19F060E0FF
:101190000E9435068091350284FD20C063E086E21E
:1011A00092E00E940007CBE4D6E4CE010197F1F76C
:1011B00063E086E292E00E9400072197F1F763E086
:1011C00086E292E00E94000783E592E00197F1F742
:1011D00062E086E292E00E94000715C080620E94F1
:1011E00069088BE496E40197F1F7809135028062FB
:1011F0000E94690883E592E00197F1F7809135023A
:1012000080620E9469088091350280620E946908AC
:1012100084E0809336028CE00E9469080E946F0887
:1012200082E08093370286E0DF91CF910C946908C9
:10123000009769F0FC0101900020E9F73197AF01B8
:10124000481B590BBC0186E292E00C94050680E035
:1012500090E008958F929F92AF92BF920F931F9349
:10126000CF93DF93CDB7DEB7A1970FB6F894DEBF6B
:101270000FBECDBF19A2423008F44AE08E010F5DC7
:101280001F4F842E912CA12CB12CA50194010E94FA
:10129000D30CE62FB901CA0101501109EA3014F448
:1012A000E05D01C0E95CD801EC93232B242B252BB6
:1012B00061F7C8010E941809A1960FB6F894DEBF25
:1012C0000FBECDBFDF91CF911F910F91BF90AF9017
:1012D0009F908F9008958F929F92AF92BF92CF92DE
:1012E000DF92EF92FF920F931F93CF93DF936B01E7
:1012F0007C01142F9B01AC010E94420F882319F03E
:1013000086E291E027C046015701E894B7F82FEF35
:101310003FEF4FE75FE7C501B4010E94420F811123
:101320000DC02FEF3FEF4FE75FE7C501B4010E940B
:10133000710D18161CF48AE291E00CC02FEF3FEFFC
:101340004FE75FE4C701B6010E94D00E181684F47F
:101350008EE291E0DF91CF911F910F91FF90EF907E
:10136000DF90CF90BF90AF909F908F900C94180912
:101370002FEF3FEF4FE75FECC701B6010E94710D01
:1013800087FDE6CF20E030E0A901C701B6010E9449
:10139000710D87FF0DC041E06DE286E292E00E9490
:1013A0002D07F7FAF094F7F8F094C1E0D0E002C00E
:1013B000C0E0D0E000E060E070E080E09FE3101764
:1013C00041F020E030E040E251E40E94760D0F5FF2
:1013D000F6CFA70196010E94050D6B017C010E94CA
:1013E000EF0D4B015C014AE00E942A09C80FD91F8A
:1013F0001123B9F1C501B4010E941E0E9B01AC017D
:10140000C701B6010E94040D6B017C0141E06EE250
:1014100086E292E00E942D07219620E030E040E233
:1014200051E4C701B6010E94D50E4B015C010E9438
:10143000EF0D6B01E12CF12C4AE0C701B6010E94CF
:101440002A09C80FD91FC701B6010E941E0E9B01B1
:10145000AC01C501B4010E94040D6B017C01115067
:10146000E1F6CE01DF91CF911F910F91FF90EF90A8
:10147000DF90CF90BF90AF909F908F900895843071
:1014800008F083E090913902891710F08FEF890FEF
:10149000E82FF0E0EA5DFD4F848980680C946908CC
:1014A0008F929F92AF92BF92CF92DF92EF92FF9274
:1014B0000F931F93CF93DF93FC0120813181E09143
:1014C0002302F09124022E173F070CF04FC0F901C0
:1014D000EE0FFF1FA0912102B0912202EA0FFB1F25
:1014E000A080B180217033276901F1E0CF26232B42
:1014F00019F42CE93FEF02C024E630E07A018B01B9
:10150000EC014901840E951EB401C5010E94250815
:10151000892B99F48E0C9F1CB401C5010E942508EB
:10152000892B71F4B701680D791DC5010E9425084A
:10153000892BF9F023E030E005C021E030E002C063
:1015400022E030E0F80180819181019682179307B3
:101550001CF49183808308C0F80111821082888175
:101560009981019699838883C60105C081E090E046
:1015700002C08FEF9FEFDF91CF911F910F91FF90EE
:10158000EF90DF90CF90BF90AF909F908F90089595
:10159000789484B5826084BD84B5816084BD85B54E
:1015A000826085BD85B5816085BD80916E0081605A
:1015B00080936E0010928100809181008260809300
:1015C0008100809181008160809381008091800002
:1015D0008160809380008091B10084608093B1002D
:1015E0008091B00081608093B00080917A00846027
:1015F00080937A0080917A00826080937A00809153
:101600007A00816080937A0080917A00806880936C
:101610007A001092C10062E08EE00E947A0661E0DA
:101620008FE00E947A0661E080E10E947A0661E024
:1016300081E10E947A0660E081E10E94350661E066
:101640008FE00E943506F89482E08093B00080938A
:10165000B10094E69093B3001092B20080937000B2
:101660007894809333011092FF018091320160E001
:101670000E947A0682E00E9477082BE9222E312C04
:1016800030E0E32E30E0F32E412C40EC542E49E7BD
:10169000642E44EC742E8EE00E943D05C2970CF43B
:1016A00049C00E948C00892B09F45AC061E081E195
:1016B0000E94350680E00E943F0AC2E0C0933301D9
:1016C0001092FF018CE091E00E94180960911B02CA
:1016D00070911C0280911D0290911E0240E10E94B7
:1016E0002A096CE271E080E090E00E94CB050E9444
:1016F0008C0081E00E943F0AC09333011092FF01E9
:101700008CE091E00E94180960911B0270911C020C
:1017100080911D0290911E0240E10E942A0968EE0C
:1017200073E080E090E00E94CB0560E081E10E94E0
:101730003506F0C080E10E947D0561E0892B09F04B
:1017400060E080E10E94350680910D0291E08927DA
:1017500080930D028EE00E943D05C297DCF3A1CF7D
:1017600080910D02882309F4D7C0E2EAF0E0D49119
:10177000EEE8F0E08491E82FF0E0EE0FFF1FE45870
:10178000FF4F0591149110920802109209021092D5
:101790000A0210920B0210920C0261E088E00E9493
:1017A0007A0660E088E00E94350662E170E080E041
:1017B00090E00E94CB0561E088E00E943506C101FF
:1017C0000197F1F760E088E00E947A0680E991E0F5
:1017D000F80120812D2319F40197D1F7A4C080E9E5
:1017E00091E0F80120812D2319F00197D1F79BC0DA
:1017F00088E2D82EC0E8C12C80E991E0F801208170
:101800002D2319F40197D1F78EC00E94A6054B0134
:101810005C0180E991E0F80120812D2319F0019706
:10182000D1F781C00E94A605DC01CB018819990976
:10183000AA09BB098997A105B10538F0EC2DF0E0A4
:10184000E050FE4F80858C2B8087C69511F4C394A1
:10185000C0E8DA94D110D0CF61E088E00E947A0627
:1018600061E088E00E9435066091080270E080E047
:1018700090E00E941E0E609300027093010280931C
:1018800002029093030260910A0270E080E090E00F
:101890000E941E0E6093040270930502809306025C
:1018A0009093070280E00E943F0A80E191E00E944D
:1018B00018096091040270910502809106029091CE
:1018C000070242E00E946B0941E06FED86E292E080
:1018D0000E942D0787E191E00E94180981E00E9493
:1018E0003F0A89E191E00E9418096091000270911D
:1018F0000102809102029091030242E00E946B0972
:1019000084E291E00E94180960ED77E080E090E0C9
:101910000E94CB050E946F08E114F10409F4BBCECC
:101920000E940000B8CE40920002509201026092E4
:1019300002027092030240920402509205026092E9
:10194000060270920702AECFE6E2F2E01382128244
:1019500084E091E09183808382E084838FEF8583AC
:1019600084E0868385E0878386E0808787E08187BF
:1019700089E082871386148615861686178681E08D
:101980000E947708E2E3F1E08AE080831282089502
:101990000E94F50CA59F900DB49F900DA49F800D03
:1019A000911D11240895A1E21A2EAA1BBB1BFD0153
:1019B0000DC0AA1FBB1FEE1FFF1FA217B307E4072E
:1019C000F50720F0A21BB30BE40BF50B661F771F86
:1019D000881F991F1A9469F7609570958095909566
:1019E0009B01AC01BD01CF010895A29FB001B39F3F
:1019F000C001A39F700D811D1124911DB29F700D18
:101A0000811D1124911D08955058BB27AA270E94BB
:101A10001C0D0C94960E0E94880E38F00E948F0EBA
:101A200020F039F49F3F19F426F40C94850E0EF43F
:101A3000E095E7FB0C947F0EE92F0E94A70E58F368
:101A4000BA17620773078407950720F079F4A6F5A3
:101A50000C94C90E0EF4E0950B2EBA2FA02D0B019D
:101A6000B90190010C01CA01A0011124FF27591BE3
:101A700099F0593F50F4503E68F11A16F040A22FE9
:101A8000232F342F4427585FF3CF4695379527955A
:101A9000A795F0405395C9F77EF41F16BA0B620B59
:101AA000730B840BBAF09150A1F0FF0FBB1F661FA0
:101AB000771F881FC2F70EC0BA0F621F731F841FE3
:101AC00048F4879577956795B795F7959E3F08F009
:101AD000B0CF9395880F08F09927EE0F97958795CB
:101AE00008950E945B0E08F481E008950E948A0D1B
:101AF0000C94960E0E948F0E58F00E94880E40F0B3
:101B000029F45F3F29F00C947F0E51110C94CA0EFA
:101B10000C94850E0E94A70E68F39923B1F3552308
:101B200091F3951B550BBB27AA27621773078407F0
:101B300038F09F5F5F4F220F331F441FAA1FA9F386
:101B400035D00E2E3AF0E0E832D091505040E69574
:101B5000001CCAF72BD0FE2F29D0660F771F881FD5
:101B6000BB1F261737074807AB07B0E809F0BB0BC8
:101B7000802DBF01FF2793585F4F3AF09E3F5105DC
:101B800078F00C947F0E0C94CA0E5F3FE4F3983EFD
:101B9000D4F3869577956795B795F7959F5FC9F7C5
:101BA000880F911D9695879597F90895E1E0660F46
:101BB000771F881FBB1F621773078407BA0720F0BF
:101BC000621B730B840BBA0BEE1F88F7E095089528
:101BD0000E94EF0D6894B1110C94CA0E08950E94F2
:101BE000AF0E88F09F5798F0B92F9927B751B0F0F2
:101BF000E1F0660F771F881F991F1AF0BA95C9F791
:101C000014C0B13091F00E94C90EB1E008950C9457
:101C1000C90E672F782F8827B85F39F0B93FCCF30A
:101C2000869577956795B395D9F73EF4909580950D
:101C3000709561957F4F8F4F9F4F0895E89409C02D
:101C400097FB3EF490958095709561957F4F8F4FEF
:101C50009F4F9923A9F0F92F96E9BB279395F69505
:101C6000879577956795B795F111F8CFFAF4BB0F83
:101C700011F460FF1BC06F5F7F4F8F4F9F4F16C0E7
:101C8000882311F096E911C0772321F09EE8872F71
:101C9000762F05C0662371F096E8862F70E060E02D
:101CA0002AF09A95660F771F881FDAF7880F9695A6
:101CB000879597F90895990F0008550FAA0BE0E84A
:101CC000FEEF16161706E807F907C0F012161306FE
:101CD000E407F50798F0621B730B840B950B39F43E
:101CE0000A2661F0232B242B252B21F408950A26A4
:101CF00009F4A140A6958FEF811D811D089597F9E4
:101D00009F6780E870E060E008959FEF80EC0895A1
:101D100000240A94161617061806090608950024CA
:101D20000A9412161306140605060895092E039444
:101D3000000C11F4882352F0BB0F40F4BF2B11F4B8
:101D400060FF04C06F5F7F4F8F4F9F4F089557FD17
:101D50009058440F551F59F05F3F71F04795880F19
:101D600097FB991F61F09F3F79F0879508951216B0
:101D700013061406551FF2CF4695F1DF08C016165C
:101D800017061806991FF1CF86957105610508940D
:101D90000895E894BB2766277727CB0197F9089524
:101DA0000E945B0E08F48FEF08950E94E80E0C94D9
:101DB000960E0E94880E38F00E948F0E20F0952318
:101DC00011F00C947F0E0C94850E11240C94CA0E05
:101DD0000E94A70E70F3959FC1F3950F50E0551F19
:101DE000629FF001729FBB27F00DB11D639FAA2770
:101DF000F00DB11DAA1F649F6627B00DA11D661FBF
:101E0000829F2227B00DA11D621F739FB00DA11DDF
:101E1000621F839FA00D611D221F749F3327A00D99
:101E2000611D231F849F600D211D822F762F6A2F35
:101E300011249F5750409AF0F1F088234AF0EE0F9A
:101E4000FF1FBB1F661F771F881F91505040A9F7C7
:101E50009E3F510580F00C947F0E0C94CA0E5F3F9C
:101E6000E4F3983ED4F3869577956795B795F79503
:101E7000E7959F5FC1F7FE2B880F911D969587957B
:101E800097F908950E945B0E880B990B0895DB016A
:101E90008F939F930E94C80CBF91AF91A29F800D1A
:101EA000911DA39F900DB29F900D112408950F9343
:101EB000083090F0982F872F762F652F542F432FBF
:101EC000322F22270850F4CF220F331F441F551FF3
:101ED000661F771F881F991F0A95B2F70F91089503
:101EE00097FB10F8169400080F93083098F00850EC
:101EF000232F342F452F562F672F782F892F902D82
:101F0000F4CF05949795879577956795579547955D
:101F1000379527950A95AAF70F910895EE0FFF1FA1
:101F20000590F491E02D099481E090E0F8940C94F0
:061F3000990FF894FFCFA9
:101F3600000000008007050630062F0649523D00C6
:101F460054656D703A2000430048756D6964697484
:101F5600793A200025006E616E00696E66006F7624
:021F6600660013
:00000001FF
